{
  "abi": [
    {
      "type": "constructor",
      "inputs": [
        {
          "name": "_aavePool",
          "type": "address",
          "internalType": "address"
        }
      ],
      "stateMutability": "nonpayable"
    },
    {
      "type": "function",
      "name": "aavePool",
      "inputs": [],
      "outputs": [
        {
          "name": "",
          "type": "address",
          "internalType": "address"
        }
      ],
      "stateMutability": "view"
    },
    {
      "type": "function",
      "name": "executeOperation",
      "inputs": [
        {
          "name": "assets",
          "type": "address[]",
          "internalType": "address[]"
        },
        {
          "name": "amounts",
          "type": "uint256[]",
          "internalType": "uint256[]"
        },
        {
          "name": "premiums",
          "type": "uint256[]",
          "internalType": "uint256[]"
        },
        {
          "name": "initiator",
          "type": "address",
          "internalType": "address"
        },
        {
          "name": "params",
          "type": "bytes",
          "internalType": "bytes"
        }
      ],
      "outputs": [
        {
          "name": "",
          "type": "bool",
          "internalType": "bool"
        }
      ],
      "stateMutability": "nonpayable"
    },
    {
      "type": "function",
      "name": "liquidateCreditAccount",
      "inputs": [
        {
          "name": "creditManager",
          "type": "address",
          "internalType": "address"
        },
        {
          "name": "creditAccount",
          "type": "address",
          "internalType": "address"
        },
        {
          "name": "underlyingAmount",
          "type": "uint256",
          "internalType": "uint256"
        },
        {
          "name": "minUnderlyingBack",
          "type": "uint256",
          "internalType": "uint256"
        }
      ],
      "outputs": [],
      "stateMutability": "nonpayable"
    },
    {
      "type": "function",
      "name": "owner",
      "inputs": [],
      "outputs": [
        {
          "name": "",
          "type": "address",
          "internalType": "address"
        }
      ],
      "stateMutability": "view"
    },
    {
      "type": "function",
      "name": "renounceOwnership",
      "inputs": [],
      "outputs": [],
      "stateMutability": "nonpayable"
    },
    {
      "type": "function",
      "name": "transferOwnership",
      "inputs": [
        {
          "name": "newOwner",
          "type": "address",
          "internalType": "address"
        }
      ],
      "outputs": [],
      "stateMutability": "nonpayable"
    },
    {
      "type": "function",
      "name": "withdrawToken",
      "inputs": [
        {
          "name": "token",
          "type": "address",
          "internalType": "address"
        },
        {
          "name": "amount",
          "type": "uint256",
          "internalType": "uint256"
        },
        {
          "name": "to",
          "type": "address",
          "internalType": "address"
        }
      ],
      "outputs": [],
      "stateMutability": "nonpayable"
    },
    {
      "type": "event",
      "name": "OwnershipTransferred",
      "inputs": [
        {
          "name": "previousOwner",
          "type": "address",
          "indexed": true,
          "internalType": "address"
        },
        {
          "name": "newOwner",
          "type": "address",
          "indexed": true,
          "internalType": "address"
        }
      ],
      "anonymous": false
    },
    {
      "type": "error",
      "name": "ForceApproveFailed",
      "inputs": []
    },
    {
      "type": "error",
      "name": "SafeTransferFailed",
      "inputs": []
    }
  ],
  "bytecode": {
    "object": "0x60a06040523480156200001157600080fd5b50604051620026cc380380620026cc8339810160408190526200003491620000a1565b6200003f3362000051565b6001600160a01b0316608052620000d3565b600080546001600160a01b038381166001600160a01b0319831681178455604051919092169283917f8be0079c531659141344cd1fd0a4f28419497f9722a3daafe3b4186f6b6457e09190a35050565b600060208284031215620000b457600080fd5b81516001600160a01b0381168114620000cc57600080fd5b9392505050565b6080516125c8620001046000396000818161010401528181610215015281816104a2015261077201526125c86000f3fe608060405234801561001057600080fd5b506004361061007d5760003560e01c80638da5cb5b1161005b5780638da5cb5b146100b2578063920f5c84146100dc578063a03e4bc3146100ff578063f2fde38b1461012657600080fd5b806325184b86146100825780633ccdbb2814610097578063715018a6146100aa575b600080fd5b610095610090366004611fc8565b610139565b005b6100956100a536600461200e565b6101d3565b6100956101f4565b6000546001600160a01b03165b6040516001600160a01b0390911681526020015b60405180910390f35b6100ef6100ea36600461216f565b610208565b60405190151581526020016100d3565b6100bf7f000000000000000000000000000000000000000000000000000000000000000081565b610095610134366004612291565b610544565b6101416105d4565b6000846001600160a01b0316636f307dc36040518163ffffffff1660e01b8152600401602060405180830381865afa158015610181573d6000803e3d6000fd5b505050506040513d601f19601f820116820180604052508101906101a591906122b5565b90506101cc8585836127106101bc886127156122e8565b6101c69190612305565b8661062e565b5050505050565b6101db6105d4565b6101ef6001600160a01b03841682846107f1565b505050565b6101fc6105d4565b6102066000610853565b565b6000336001600160a01b037f000000000000000000000000000000000000000000000000000000000000000016146102875760405162461bcd60e51b815260206004820152601460248201527f43616c6c6572206e6f74204161766520706f6f6c00000000000000000000000060448201526064015b60405180910390fd5b6001600160a01b03841630146103055760405162461bcd60e51b815260206004820152602960248201527f466c617368206c6f616e20696e69746961746f72206973206e6f74207468697360448201527f20636f6e74726163740000000000000000000000000000000000000000000000606482015260840161027e565b6000808061031585870187612327565b92509250925061035b8a60008151811061033157610331612368565b60200260200101518a60008151811061034c5761034c612368565b602002602001015185856108bb565b61037e8a60008151811061037157610371612368565b6020026020010151611489565b6103a18a60008151811061039457610394612368565b602002602001015161199c565b808a6000815181106103b5576103b5612368565b60209081029190910101516040516370a0823160e01b81523060048201526001600160a01b03909116906370a0823190602401602060405180830381865afa158015610405573d6000803e3d6000fd5b505050506040513d601f19601f82011682018060405250810190610429919061237e565b101561049d5760405162461bcd60e51b815260206004820152603160248201527f556e6465726c79696e672062616c616e6365206973206c657373207468616e2060448201527f6d696e556e6465726c79696e674261636b000000000000000000000000000000606482015260840161027e565b6105347f0000000000000000000000000000000000000000000000000000000000000000896000815181106104d4576104d4612368565b60200260200101518b6000815181106104ef576104ef612368565b60200260200101516105019190612397565b8c60008151811061051457610514612368565b60200260200101516001600160a01b0316611ed19092919063ffffffff16565b5060019998505050505050505050565b61054c6105d4565b6001600160a01b0381166105c85760405162461bcd60e51b815260206004820152602660248201527f4f776e61626c653a206e6577206f776e657220697320746865207a65726f206160448201527f6464726573730000000000000000000000000000000000000000000000000000606482015260840161027e565b6105d181610853565b50565b6000546001600160a01b031633146102065760405162461bcd60e51b815260206004820181905260248201527f4f776e61626c653a2063616c6c6572206973206e6f7420746865206f776e6572604482015260640161027e565b60408051600180825281830190925260009160208083019080368337019050509050838160008151811061066457610664612368565b6001600160a01b03929092166020928302919091019091015260408051600180825281830190925260009181602001602082028036833701905050905083816000815181106106b5576106b5612368565b60209081029190910101526040805160018082528183019092526000918160200160208202803683370190505090506000816000815181106106f9576106f9612368565b602090810291909101810191909152604080516001600160a01b03808c1693820193909352918916908201526060810185905260009060800160408051601f19818403018152908290527fab9c4b5d00000000000000000000000000000000000000000000000000000000825291506001600160a01b037f0000000000000000000000000000000000000000000000000000000000000000169063ab9c4b5d906107b49030908890889088908490899060009060040161242b565b600060405180830381600087803b1580156107ce57600080fd5b505af11580156107e2573d6000803e3d6000fd5b50505050505050505050505050565b61081d837fa9059cbb000000000000000000000000000000000000000000000000000000008484611f4f565b6101ef576040517ffb7f507900000000000000000000000000000000000000000000000000000000815260040160405180910390fd5b600080546001600160a01b038381167fffffffffffffffffffffffff0000000000000000000000000000000000000000831681178455604051919092169283917f8be0079c531659141344cd1fd0a4f28419497f9722a3daafe3b4186f6b6457e09190a35050565b6108cf6001600160a01b0385168385611ed1565b60606000836001600160a01b0316632f7a18816040518163ffffffff1660e01b8152600401602060405180830381865afa158015610911573d6000803e3d6000fd5b505050506040513d601f19601f8201168201806040525081019061093591906122b5565b6040516370a0823160e01b81526001600160a01b03851660048201529091506000907372ed19788bce2971a5ed6401662230ee57e254b7906370a0823190602401602060405180830381865afa158015610993573d6000803e3d6000fd5b505050506040513d601f19601f820116820180604052508101906109b7919061237e565b90506001811115610e775760408051600580825260c0820190925290816020015b6040805180820190915260008152606060208201528152602001906001900390816109d8579050506040805180820182526001600160a01b0380861682529151918a16602483015260448201899052919450602082019060640160408051601f198184030181529190526020810180516001600160e01b03166336badcf760e11b179052905283518490600090610a7157610a71612368565b602090810291909101015260405163fdd5764560e01b81527311fd8801a051b296e337a3e1168839fb346d594060048201526000906001600160a01b0387169063fdd5764590602401602060405180830381865afa158015610ad7573d6000803e3d6000fd5b505050506040513d601f19601f82011682018060405250810190610afb91906122b5565b6040516370a0823160e01b81526001600160a01b03871660048201529091506000907372ed19788bce2971a5ed6401662230ee57e254b7906370a0823190602401602060405180830381865afa158015610b59573d6000803e3d6000fd5b505050506040513d601f19601f82011682018060405250810190610b7d919061237e565b6040805180820182526001600160a01b03851681529051602481018390526000604482015291925090602082019060640160408051601f198184030181529190526020810180516001600160e01b03167fc32e7202000000000000000000000000000000000000000000000000000000001790529052855186906001908110610c0857610c08612368565b602090810291909101015260405163fdd5764560e01b815273d29f8980852c2c76fc3f6e96a7aa06e0bedcc1b160048201526000906001600160a01b0389169063fdd5764590602401602060405180830381865afa158015610c6e573d6000803e3d6000fd5b505050506040513d601f19601f82011682018060405250810190610c9291906122b5565b6040805180820182526001600160a01b038316815281516002808252606082018452939450909260208085019387939291830190803683375050604051610cde939291506024016124e6565b60408051601f198184030181529190526020810180516001600160e01b03167fd40ddb8c000000000000000000000000000000000000000000000000000000001790529052865187906002908110610d3857610d38612368565b6020908102919091018101919091526040805180820182526001600160a01b03881681529051739d39a5de30e57443bff2a8307a4256c8797a349760248201526000196044820152306064820152909182019060840160408051601f198184030181529190526020810180516001600160e01b031662f8844560e51b1790529052865187906003908110610dce57610dce612368565b6020908102919091018101919091526040805180820182526001600160a01b03881681529051730655977feb2f289a4ab78af67bab0d17aab8436760248201526000196044820152306064820152909182019060840160408051601f198184030181529190526020810180516001600160e01b031662f8844560e51b1790529052865187906004908110610e6457610e64612368565b6020026020010181905250505050611405565b6040516370a0823160e01b81526001600160a01b0385166004820152600090739d39a5de30e57443bff2a8307a4256c8797a3497906370a0823190602401602060405180830381865afa158015610ed2573d6000803e3d6000fd5b505050506040513d601f19601f82011682018060405250810190610ef6919061237e565b6040516370a0823160e01b81526001600160a01b0387166004820152909150600090730655977feb2f289a4ab78af67bab0d17aab84367906370a0823190602401602060405180830381865afa158015610f54573d6000803e3d6000fd5b505050506040513d601f19601f82011682018060405250810190610f78919061237e565b9050600182118015610f8b575060018111155b156110e6576040805160028082526060820190925290816020015b604080518082019091526000815260606020820152815260200190600190039081610fa6579050506040805180820182526001600160a01b0380881682529151918c166024830152604482018b9052919650602082019060640160408051601f198184030181529190526020810180516001600160e01b03166336badcf760e11b17905290528551869060009061103f5761103f612368565b6020908102919091018101919091526040805180820182526001600160a01b03871681529051739d39a5de30e57443bff2a8307a4256c8797a34976024820152600019604482015230606482015290918201906084015b60408051601f198184030181529190526020810180516001600160e01b031662f8844560e51b17905290528551869060019081106110d6576110d6612368565b6020026020010181905250611402565b600182111580156110f75750600181115b15611206576040805160028082526060820190925290816020015b604080518082019091526000815260606020820152815260200190600190039081611112579050506040805180820182526001600160a01b0380881682529151918c166024830152604482018b9052919650602082019060640160408051601f198184030181529190526020810180516001600160e01b03166336badcf760e11b1790529052855186906000906111ab576111ab612368565b6020908102919091018101919091526040805180820182526001600160a01b03871681529051730655977feb2f289a4ab78af67bab0d17aab84367602482015260001960448201523060648201529091820190608401611096565b6001821180156112165750600181115b15611402576040805160038082526080820190925290816020015b604080518082019091526000815260606020820152815260200190600190039081611231579050506040805180820182526001600160a01b0380881682529151918c166024830152604482018b9052919650602082019060640160408051601f198184030181529190526020810180516001600160e01b03166336badcf760e11b1790529052855186906000906112ca576112ca612368565b6020908102919091018101919091526040805180820182526001600160a01b03871681529051739d39a5de30e57443bff2a8307a4256c8797a349760248201526000196044820152306064820152909182019060840160408051601f198184030181529190526020810180516001600160e01b031662f8844560e51b179052905285518690600190811061136057611360612368565b6020908102919091018101919091526040805180820182526001600160a01b03871681529051730655977feb2f289a4ab78af67bab0d17aab8436760248201526000196044820152306064820152909182019060840160408051601f198184030181529190526020810180516001600160e01b031662f8844560e51b17905290528551869060029081106113f6576113f6612368565b60200260200101819052505b50505b6040517fe3f46b260000000000000000000000000000000000000000000000000000000081526001600160a01b0383169063e3f46b269061144e908790309088906004016124ff565b600060405180830381600087803b15801561146857600080fd5b505af115801561147c573d6000803e3d6000fd5b5050505050505050505050565b6040516370a0823160e01b8152306004820152600090730655977feb2f289a4ab78af67bab0d17aab84367906370a0823190602401602060405180830381865afa1580156114db573d6000803e3d6000fd5b505050506040513d601f19601f820116820180604052508101906114ff919061237e565b90508060000361150d575050565b6040517fba0876520000000000000000000000000000000000000000000000000000000081526004810182905230602482018190526044820152730655977feb2f289a4ab78af67bab0d17aab843679063ba087652906064016020604051808303816000875af1158015611585573d6000803e3d6000fd5b505050506040513d601f19601f820116820180604052508101906115a9919061237e565b506040516370a0823160e01b815230600482015260009073f939e0a03fb07f59a73314e73794be0e57ac1b4e906370a0823190602401602060405180830381865afa1580156115fc573d6000803e3d6000fd5b505050506040513d601f19601f82011682018060405250810190611620919061237e565b905073a0b86991c6218b36c1d19d4a2e9eb0ce3606eb47196001600160a01b038416016116fa5761167a73f939e0a03fb07f59a73314e73794be0e57ac1b4e734dece678ceceb27446b35c672dc7d61f30bad69e83611ed1565b604051630f7c084960e21b815260016004820152600060248201819052604482018390526064820152734dece678ceceb27446b35c672dc7d61f30bad69e90633df02124906084015b600060405180830381600087803b1580156116dd57600080fd5b505af11580156116f1573d6000803e3d6000fd5b50505050505050565b73dac17f958d2ee523a2206206994597c13d831ec6196001600160a01b0384160161179f5761175273f939e0a03fb07f59a73314e73794be0e57ac1b4e73390f3595bca2df7d23783dfd126427cceb997bf483611ed1565b604051630f7c084960e21b81526001600482015260006024820181905260448201839052606482015273390f3595bca2df7d23783dfd126427cceb997bf490633df02124906084016116c3565b736b175474e89094c44da98b954eedeac495271d0e196001600160a01b038416016101ef576117f773f939e0a03fb07f59a73314e73794be0e57ac1b4e734dece678ceceb27446b35c672dc7d61f30bad69e83611ed1565b604051630f7c084960e21b815260016004820152600060248201819052604482018390526064820152734dece678ceceb27446b35c672dc7d61f30bad69e90633df0212490608401600060405180830381600087803b15801561185957600080fd5b505af115801561186d573d6000803e3d6000fd5b50506040516370a0823160e01b81523060048201526000925073a0b86991c6218b36c1d19d4a2e9eb0ce3606eb4891506370a0823190602401602060405180830381865afa1580156118c3573d6000803e3d6000fd5b505050506040513d601f19601f820116820180604052508101906118e7919061237e565b905061191c73a0b86991c6218b36c1d19d4a2e9eb0ce3606eb4873bebc44782c7db0a1a60cb6fe97d0b483032ff1c783611ed1565b604051630f7c084960e21b81526001600482015260006024820181905260448201839052606482015273bebc44782c7db0a1a60cb6fe97d0b483032ff1c790633df0212490608401600060405180830381600087803b15801561197e57600080fd5b505af1158015611992573d6000803e3d6000fd5b5050505050505050565b6040516370a0823160e01b8152306004820152600090739d39a5de30e57443bff2a8307a4256c8797a3497906370a0823190602401602060405180830381865afa1580156119ee573d6000803e3d6000fd5b505050506040513d601f19601f82011682018060405250810190611a12919061237e565b905080600003611a20575050565b73a0b86991c6218b36c1d19d4a2e9eb0ce3606eb47196001600160a01b03831601611c1057611a78739d39a5de30e57443bff2a8307a4256c8797a3497731dd125c32e4b5086c63cc13b3ca02c4a2a61fa9b83611ed1565b6040516313346fd560e11b8152600160048201526024810182905260006044820152306064820152731dd125c32e4b5086c63cc13b3ca02c4a2a61fa9b90632668dfaa906084016020604051808303816000875af1158015611ade573d6000803e3d6000fd5b505050506040513d601f19601f82011682018060405250810190611b02919061237e565b506040516370a0823160e01b815230600482015260009073dac17f958d2ee523a2206206994597c13d831ec7906370a0823190602401602060405180830381865afa158015611b55573d6000803e3d6000fd5b505050506040513d601f19601f82011682018060405250810190611b79919061237e565b9050611bae73dac17f958d2ee523a2206206994597c13d831ec773bebc44782c7db0a1a60cb6fe97d0b483032ff1c783611ed1565b604051630f7c084960e21b81526002600482015260016024820152604481018290526000606482015273bebc44782c7db0a1a60cb6fe97d0b483032ff1c790633df0212490608401600060405180830381600087803b1580156116dd57600080fd5b73dac17f958d2ee523a2206206994597c13d831ec6196001600160a01b03831601611cf257611c68739d39a5de30e57443bff2a8307a4256c8797a3497731dd125c32e4b5086c63cc13b3ca02c4a2a61fa9b83611ed1565b6040516313346fd560e11b8152600160048201526024810182905260006044820152306064820152731dd125c32e4b5086c63cc13b3ca02c4a2a61fa9b90632668dfaa906084016020604051808303816000875af1158015611cce573d6000803e3d6000fd5b505050506040513d601f19601f820116820180604052508101906101ef919061237e565b736b175474e89094c44da98b954eedeac495271d0e196001600160a01b03831601611ecd57611d4a739d39a5de30e57443bff2a8307a4256c8797a3497731dd125c32e4b5086c63cc13b3ca02c4a2a61fa9b83611ed1565b6040516313346fd560e11b8152600160048201526024810182905260006044820152306064820152731dd125c32e4b5086c63cc13b3ca02c4a2a61fa9b90632668dfaa906084016020604051808303816000875af1158015611db0573d6000803e3d6000fd5b505050506040513d601f19601f82011682018060405250810190611dd4919061237e565b506040516370a0823160e01b815230600482015260009073dac17f958d2ee523a2206206994597c13d831ec7906370a0823190602401602060405180830381865afa158015611e27573d6000803e3d6000fd5b505050506040513d601f19601f82011682018060405250810190611e4b919061237e565b9050611e8073dac17f958d2ee523a2206206994597c13d831ec773bebc44782c7db0a1a60cb6fe97d0b483032ff1c783611ed1565b604051630f7c084960e21b81526002600482015260006024820181905260448201839052606482015273bebc44782c7db0a1a60cb6fe97d0b483032ff1c790633df02124906084016116c3565b5050565b611ee48363095ea7b360e01b8484611f4f565b6101ef57611efc8363095ea7b360e01b846000611f4f565b1580611f185750611f168363095ea7b360e01b8484611f4f565b155b156101ef576040517f19be9a9000000000000000000000000000000000000000000000000000000000815260040160405180910390fd5b60006040518481528360048201528260248201526020600060448360008a5af19150508015611f9b573d8015611f9157600160005114601f3d11169150611f99565b6000863b1191505b505b949350505050565b6001600160a01b03811681146105d157600080fd5b8035611fc381611fa3565b919050565b60008060008060808587031215611fde57600080fd5b8435611fe981611fa3565b93506020850135611ff981611fa3565b93969395505050506040820135916060013590565b60008060006060848603121561202357600080fd5b833561202e81611fa3565b925060208401359150604084013561204581611fa3565b809150509250925092565b634e487b7160e01b600052604160045260246000fd5b604051601f8201601f1916810167ffffffffffffffff8111828210171561208f5761208f612050565b604052919050565b600067ffffffffffffffff8211156120b1576120b1612050565b5060051b60200190565b600082601f8301126120cc57600080fd5b813560206120e16120dc83612097565b612066565b82815260059290921b8401810191818101908684111561210057600080fd5b8286015b8481101561211b5780358352918301918301612104565b509695505050505050565b60008083601f84011261213857600080fd5b50813567ffffffffffffffff81111561215057600080fd5b60208301915083602082850101111561216857600080fd5b9250929050565b60008060008060008060a0878903121561218857600080fd5b863567ffffffffffffffff808211156121a057600080fd5b818901915089601f8301126121b457600080fd5b813560206121c46120dc83612097565b82815260059290921b8401810191818101908d8411156121e357600080fd5b948201945b8386101561220a5785356121fb81611fa3565b825294820194908201906121e8565b9a50508a01359250508082111561222057600080fd5b61222c8a838b016120bb565b9650604089013591508082111561224257600080fd5b61224e8a838b016120bb565b955061225c60608a01611fb8565b9450608089013591508082111561227257600080fd5b5061227f89828a01612126565b979a9699509497509295939492505050565b6000602082840312156122a357600080fd5b81356122ae81611fa3565b9392505050565b6000602082840312156122c757600080fd5b81516122ae81611fa3565b634e487b7160e01b600052601160045260246000fd5b80820281158282048414176122ff576122ff6122d2565b92915050565b60008261232257634e487b7160e01b600052601260045260246000fd5b500490565b60008060006060848603121561233c57600080fd5b833561234781611fa3565b9250602084013561235781611fa3565b929592945050506040919091013590565b634e487b7160e01b600052603260045260246000fd5b60006020828403121561239057600080fd5b5051919050565b808201808211156122ff576122ff6122d2565b600081518084526020808501945080840160005b838110156123da578151875295820195908201906001016123be565b509495945050505050565b6000815180845260005b8181101561240b576020818501810151868301820152016123ef565b506000602082860101526020601f19601f83011685010191505092915050565b600060e082016001600160a01b03808b168452602060e081860152828b5180855261010087019150828d01945060005b8181101561247957855185168352948301949183019160010161245b565b5050858103604087015261248d818c6123aa565b935050505082810360608401526124a481886123aa565b6001600160a01b0387166080850152905082810360a08401526124c781866123e5565b9150506124da60c083018461ffff169052565b98975050505050505050565b828152604060208201526000611f9b60408301846123aa565b6000606082016001600160a01b038087168452602081871681860152604060608187015283875180865260808801915060808160051b890101955083890160005b8281101561258157898803607f19018452815180518816895286015186890186905261256e868a01826123e5565b9850509285019290850190600101612540565b50959b9a505050505050505050505056fea2646970667358221220b4e59b23aed37d9dd8f8eff16e074b3085faff934d2db3827f330a0c322d586c64736f6c63430008110033",
    "linkReferences": {}
  },
  "methodIdentifiers": {
    "aavePool()": "a03e4bc3",
    "executeOperation(address[],uint256[],uint256[],address,bytes)": "920f5c84",
    "liquidateCreditAccount(address,address,uint256,uint256)": "25184b86",
    "owner()": "8da5cb5b",
    "renounceOwnership()": "715018a6",
    "transferOwnership(address)": "f2fde38b",
    "withdrawToken(address,uint256,address)": "3ccdbb28"
  },
  "id": 60
}