{
  "abi": [
    {
      "type": "constructor",
      "inputs": [
        {
          "name": "owner",
          "type": "address",
          "internalType": "address"
        },
        {
          "name": "_aavePool",
          "type": "address",
          "internalType": "address"
        }
      ],
      "stateMutability": "nonpayable"
    },
    {
      "type": "function",
      "name": "aavePool",
      "inputs": [],
      "outputs": [
        {
          "name": "",
          "type": "address",
          "internalType": "address"
        }
      ],
      "stateMutability": "view"
    },
    {
      "type": "function",
      "name": "executeOperation",
      "inputs": [
        {
          "name": "assets",
          "type": "address[]",
          "internalType": "address[]"
        },
        {
          "name": "amounts",
          "type": "uint256[]",
          "internalType": "uint256[]"
        },
        {
          "name": "premiums",
          "type": "uint256[]",
          "internalType": "uint256[]"
        },
        {
          "name": "initiator",
          "type": "address",
          "internalType": "address"
        },
        {
          "name": "params",
          "type": "bytes",
          "internalType": "bytes"
        }
      ],
      "outputs": [
        {
          "name": "",
          "type": "bool",
          "internalType": "bool"
        }
      ],
      "stateMutability": "nonpayable"
    },
    {
      "type": "function",
      "name": "liquidateCreditAccount",
      "inputs": [
        {
          "name": "creditManager",
          "type": "address",
          "internalType": "address"
        },
        {
          "name": "creditAccount",
          "type": "address",
          "internalType": "address"
        },
        {
          "name": "underlyingAmount",
          "type": "uint256",
          "internalType": "uint256"
        },
        {
          "name": "minUnderlyingBack",
          "type": "uint256",
          "internalType": "uint256"
        }
      ],
      "outputs": [],
      "stateMutability": "nonpayable"
    },
    {
      "type": "function",
      "name": "owner",
      "inputs": [],
      "outputs": [
        {
          "name": "",
          "type": "address",
          "internalType": "address"
        }
      ],
      "stateMutability": "view"
    },
    {
      "type": "function",
      "name": "renounceOwnership",
      "inputs": [],
      "outputs": [],
      "stateMutability": "nonpayable"
    },
    {
      "type": "function",
      "name": "transferOwnership",
      "inputs": [
        {
          "name": "newOwner",
          "type": "address",
          "internalType": "address"
        }
      ],
      "outputs": [],
      "stateMutability": "nonpayable"
    },
    {
      "type": "function",
      "name": "withdrawToken",
      "inputs": [
        {
          "name": "token",
          "type": "address",
          "internalType": "address"
        },
        {
          "name": "amount",
          "type": "uint256",
          "internalType": "uint256"
        },
        {
          "name": "to",
          "type": "address",
          "internalType": "address"
        }
      ],
      "outputs": [],
      "stateMutability": "nonpayable"
    },
    {
      "type": "event",
      "name": "OwnershipTransferred",
      "inputs": [
        {
          "name": "previousOwner",
          "type": "address",
          "indexed": true,
          "internalType": "address"
        },
        {
          "name": "newOwner",
          "type": "address",
          "indexed": true,
          "internalType": "address"
        }
      ],
      "anonymous": false
    },
    {
      "type": "error",
      "name": "ForceApproveFailed",
      "inputs": []
    },
    {
      "type": "error",
      "name": "SafeTransferFailed",
      "inputs": []
    }
  ],
  "bytecode": {
    "object": "0x60a06040523480156200001157600080fd5b5060405162002678380380620026788339810160408190526200003491620000ca565b6200003f336200005d565b6200004a826200005d565b6001600160a01b03166080525062000102565b600080546001600160a01b038381166001600160a01b0319831681178455604051919092169283917f8be0079c531659141344cd1fd0a4f28419497f9722a3daafe3b4186f6b6457e09190a35050565b80516001600160a01b0381168114620000c557600080fd5b919050565b60008060408385031215620000de57600080fd5b620000e983620000ad565b9150620000f960208401620000ad565b90509250929050565b608051612545620001336000396000818161010401528181610215015281816104a2015261077201526125456000f3fe608060405234801561001057600080fd5b506004361061007d5760003560e01c80638da5cb5b1161005b5780638da5cb5b146100b2578063920f5c84146100dc578063a03e4bc3146100ff578063f2fde38b1461012657600080fd5b806325184b86146100825780633ccdbb2814610097578063715018a6146100aa575b600080fd5b610095610090366004611f45565b610139565b005b6100956100a5366004611f8b565b6101d3565b6100956101f4565b6000546001600160a01b03165b6040516001600160a01b0390911681526020015b60405180910390f35b6100ef6100ea3660046120ec565b610208565b60405190151581526020016100d3565b6100bf7f000000000000000000000000000000000000000000000000000000000000000081565b61009561013436600461220e565b610544565b6101416105d4565b6000846001600160a01b0316636f307dc36040518163ffffffff1660e01b8152600401602060405180830381865afa158015610181573d6000803e3d6000fd5b505050506040513d601f19601f820116820180604052508101906101a59190612232565b90506101cc8585836127106101bc88612715612265565b6101c69190612282565b8661062e565b5050505050565b6101db6105d4565b6101ef6001600160a01b03841682846107f1565b505050565b6101fc6105d4565b6102066000610853565b565b6000336001600160a01b037f000000000000000000000000000000000000000000000000000000000000000016146102875760405162461bcd60e51b815260206004820152601460248201527f43616c6c6572206e6f74204161766520706f6f6c00000000000000000000000060448201526064015b60405180910390fd5b6001600160a01b03841630146103055760405162461bcd60e51b815260206004820152602960248201527f466c617368206c6f616e20696e69746961746f72206973206e6f74207468697360448201527f20636f6e74726163740000000000000000000000000000000000000000000000606482015260840161027e565b60008080610315858701876122a4565b92509250925061035b8a600081518110610331576103316122e5565b60200260200101518a60008151811061034c5761034c6122e5565b602002602001015185856108bb565b61037e8a600081518110610371576103716122e5565b6020026020010151611406565b6103a18a600081518110610394576103946122e5565b6020026020010151611919565b808a6000815181106103b5576103b56122e5565b60209081029190910101516040516370a0823160e01b81523060048201526001600160a01b03909116906370a0823190602401602060405180830381865afa158015610405573d6000803e3d6000fd5b505050506040513d601f19601f8201168201806040525081019061042991906122fb565b101561049d5760405162461bcd60e51b815260206004820152603160248201527f556e6465726c79696e672062616c616e6365206973206c657373207468616e2060448201527f6d696e556e6465726c79696e674261636b000000000000000000000000000000606482015260840161027e565b6105347f0000000000000000000000000000000000000000000000000000000000000000896000815181106104d4576104d46122e5565b60200260200101518b6000815181106104ef576104ef6122e5565b60200260200101516105019190612314565b8c600081518110610514576105146122e5565b60200260200101516001600160a01b0316611e4e9092919063ffffffff16565b5060019998505050505050505050565b61054c6105d4565b6001600160a01b0381166105c85760405162461bcd60e51b815260206004820152602660248201527f4f776e61626c653a206e6577206f776e657220697320746865207a65726f206160448201527f6464726573730000000000000000000000000000000000000000000000000000606482015260840161027e565b6105d181610853565b50565b6000546001600160a01b031633146102065760405162461bcd60e51b815260206004820181905260248201527f4f776e61626c653a2063616c6c6572206973206e6f7420746865206f776e6572604482015260640161027e565b604080516001808252818301909252600091602080830190803683370190505090508381600081518110610664576106646122e5565b6001600160a01b03929092166020928302919091019091015260408051600180825281830190925260009181602001602082028036833701905050905083816000815181106106b5576106b56122e5565b60209081029190910101526040805160018082528183019092526000918160200160208202803683370190505090506000816000815181106106f9576106f96122e5565b602090810291909101810191909152604080516001600160a01b03808c1693820193909352918916908201526060810185905260009060800160408051601f19818403018152908290527fab9c4b5d00000000000000000000000000000000000000000000000000000000825291506001600160a01b037f0000000000000000000000000000000000000000000000000000000000000000169063ab9c4b5d906107b4903090889088908890849089906000906004016123a8565b600060405180830381600087803b1580156107ce57600080fd5b505af11580156107e2573d6000803e3d6000fd5b50505050505050505050505050565b61081d837fa9059cbb000000000000000000000000000000000000000000000000000000008484611ecc565b6101ef576040517ffb7f507900000000000000000000000000000000000000000000000000000000815260040160405180910390fd5b600080546001600160a01b038381167fffffffffffffffffffffffff0000000000000000000000000000000000000000831681178455604051919092169283917f8be0079c531659141344cd1fd0a4f28419497f9722a3daafe3b4186f6b6457e09190a35050565b6108cf6001600160a01b0385168385611e4e565b60606000836001600160a01b0316632f7a18816040518163ffffffff1660e01b8152600401602060405180830381865afa158015610911573d6000803e3d6000fd5b505050506040513d601f19601f820116820180604052508101906109359190612232565b6040516370a0823160e01b81526001600160a01b03851660048201529091506000907372ed19788bce2971a5ed6401662230ee57e254b7906370a0823190602401602060405180830381865afa158015610993573d6000803e3d6000fd5b505050506040513d601f19601f820116820180604052508101906109b791906122fb565b90506001811115610df45760408051600580825260c0820190925290816020015b6040805180820190915260008152606060208201528152602001906001900390816109d8579050506040805180820182526001600160a01b0380861682529151918a16602483015260448201899052919450602082019060640160408051601f198184030181529190526020810180516001600160e01b03166336badcf760e11b179052905283518490600090610a7157610a716122e5565b602090810291909101015260405163fdd5764560e01b81527311fd8801a051b296e337a3e1168839fb346d594060048201526000906001600160a01b0387169063fdd5764590602401602060405180830381865afa158015610ad7573d6000803e3d6000fd5b505050506040513d601f19601f82011682018060405250810190610afb9190612232565b6040805180820182526001600160a01b03831681529051602481018590526000604482015291925090602082019060640160408051601f198184030181529190526020810180516001600160e01b03167fc32e7202000000000000000000000000000000000000000000000000000000001790529052845185906001908110610b8657610b866122e5565b602090810291909101015260405163fdd5764560e01b815273d29f8980852c2c76fc3f6e96a7aa06e0bedcc1b160048201526000906001600160a01b0388169063fdd5764590602401602060405180830381865afa158015610bec573d6000803e3d6000fd5b505050506040513d601f19601f82011682018060405250810190610c109190612232565b6040805180820182526001600160a01b038316815281516002808252606082018452939450909260208085019388939291830190803683375050604051610c5c93929150602401612463565b60408051601f198184030181529190526020810180516001600160e01b03167fd40ddb8c000000000000000000000000000000000000000000000000000000001790529052855186906002908110610cb657610cb66122e5565b6020908102919091018101919091526040805180820182526001600160a01b03871681529051739d39a5de30e57443bff2a8307a4256c8797a349760248201526000196044820152306064820152909182019060840160408051601f198184030181529190526020810180516001600160e01b031662f8844560e51b1790529052855186906003908110610d4c57610d4c6122e5565b6020908102919091018101919091526040805180820182526001600160a01b03871681529051730655977feb2f289a4ab78af67bab0d17aab8436760248201526000196044820152306064820152909182019060840160408051601f198184030181529190526020810180516001600160e01b031662f8844560e51b1790529052855186906004908110610de257610de26122e5565b60200260200101819052505050611382565b6040516370a0823160e01b81526001600160a01b0385166004820152600090739d39a5de30e57443bff2a8307a4256c8797a3497906370a0823190602401602060405180830381865afa158015610e4f573d6000803e3d6000fd5b505050506040513d601f19601f82011682018060405250810190610e7391906122fb565b6040516370a0823160e01b81526001600160a01b0387166004820152909150600090730655977feb2f289a4ab78af67bab0d17aab84367906370a0823190602401602060405180830381865afa158015610ed1573d6000803e3d6000fd5b505050506040513d601f19601f82011682018060405250810190610ef591906122fb565b9050600182118015610f08575060018111155b15611063576040805160028082526060820190925290816020015b604080518082019091526000815260606020820152815260200190600190039081610f23579050506040805180820182526001600160a01b0380881682529151918c166024830152604482018b9052919650602082019060640160408051601f198184030181529190526020810180516001600160e01b03166336badcf760e11b179052905285518690600090610fbc57610fbc6122e5565b6020908102919091018101919091526040805180820182526001600160a01b03871681529051739d39a5de30e57443bff2a8307a4256c8797a34976024820152600019604482015230606482015290918201906084015b60408051601f198184030181529190526020810180516001600160e01b031662f8844560e51b1790529052855186906001908110611053576110536122e5565b602002602001018190525061137f565b600182111580156110745750600181115b15611183576040805160028082526060820190925290816020015b60408051808201909152600081526060602082015281526020019060019003908161108f579050506040805180820182526001600160a01b0380881682529151918c166024830152604482018b9052919650602082019060640160408051601f198184030181529190526020810180516001600160e01b03166336badcf760e11b179052905285518690600090611128576111286122e5565b6020908102919091018101919091526040805180820182526001600160a01b03871681529051730655977feb2f289a4ab78af67bab0d17aab84367602482015260001960448201523060648201529091820190608401611013565b6001821180156111935750600181115b1561137f576040805160038082526080820190925290816020015b6040805180820190915260008152606060208201528152602001906001900390816111ae579050506040805180820182526001600160a01b0380881682529151918c166024830152604482018b9052919650602082019060640160408051601f198184030181529190526020810180516001600160e01b03166336badcf760e11b179052905285518690600090611247576112476122e5565b6020908102919091018101919091526040805180820182526001600160a01b03871681529051739d39a5de30e57443bff2a8307a4256c8797a349760248201526000196044820152306064820152909182019060840160408051601f198184030181529190526020810180516001600160e01b031662f8844560e51b17905290528551869060019081106112dd576112dd6122e5565b6020908102919091018101919091526040805180820182526001600160a01b03871681529051730655977feb2f289a4ab78af67bab0d17aab8436760248201526000196044820152306064820152909182019060840160408051601f198184030181529190526020810180516001600160e01b031662f8844560e51b1790529052855186906002908110611373576113736122e5565b60200260200101819052505b50505b6040517fe3f46b260000000000000000000000000000000000000000000000000000000081526001600160a01b0383169063e3f46b26906113cb9087903090889060040161247c565b600060405180830381600087803b1580156113e557600080fd5b505af11580156113f9573d6000803e3d6000fd5b5050505050505050505050565b6040516370a0823160e01b8152306004820152600090730655977feb2f289a4ab78af67bab0d17aab84367906370a0823190602401602060405180830381865afa158015611458573d6000803e3d6000fd5b505050506040513d601f19601f8201168201806040525081019061147c91906122fb565b90508060000361148a575050565b6040517fba0876520000000000000000000000000000000000000000000000000000000081526004810182905230602482018190526044820152730655977feb2f289a4ab78af67bab0d17aab843679063ba087652906064016020604051808303816000875af1158015611502573d6000803e3d6000fd5b505050506040513d601f19601f8201168201806040525081019061152691906122fb565b506040516370a0823160e01b815230600482015260009073f939e0a03fb07f59a73314e73794be0e57ac1b4e906370a0823190602401602060405180830381865afa158015611579573d6000803e3d6000fd5b505050506040513d601f19601f8201168201806040525081019061159d91906122fb565b905073a0b86991c6218b36c1d19d4a2e9eb0ce3606eb47196001600160a01b03841601611677576115f773f939e0a03fb07f59a73314e73794be0e57ac1b4e734dece678ceceb27446b35c672dc7d61f30bad69e83611e4e565b604051630f7c084960e21b815260016004820152600060248201819052604482018390526064820152734dece678ceceb27446b35c672dc7d61f30bad69e90633df02124906084015b600060405180830381600087803b15801561165a57600080fd5b505af115801561166e573d6000803e3d6000fd5b50505050505050565b73dac17f958d2ee523a2206206994597c13d831ec6196001600160a01b0384160161171c576116cf73f939e0a03fb07f59a73314e73794be0e57ac1b4e73390f3595bca2df7d23783dfd126427cceb997bf483611e4e565b604051630f7c084960e21b81526001600482015260006024820181905260448201839052606482015273390f3595bca2df7d23783dfd126427cceb997bf490633df0212490608401611640565b736b175474e89094c44da98b954eedeac495271d0e196001600160a01b038416016101ef5761177473f939e0a03fb07f59a73314e73794be0e57ac1b4e734dece678ceceb27446b35c672dc7d61f30bad69e83611e4e565b604051630f7c084960e21b815260016004820152600060248201819052604482018390526064820152734dece678ceceb27446b35c672dc7d61f30bad69e90633df0212490608401600060405180830381600087803b1580156117d657600080fd5b505af11580156117ea573d6000803e3d6000fd5b50506040516370a0823160e01b81523060048201526000925073a0b86991c6218b36c1d19d4a2e9eb0ce3606eb4891506370a0823190602401602060405180830381865afa158015611840573d6000803e3d6000fd5b505050506040513d601f19601f8201168201806040525081019061186491906122fb565b905061189973a0b86991c6218b36c1d19d4a2e9eb0ce3606eb4873bebc44782c7db0a1a60cb6fe97d0b483032ff1c783611e4e565b604051630f7c084960e21b81526001600482015260006024820181905260448201839052606482015273bebc44782c7db0a1a60cb6fe97d0b483032ff1c790633df0212490608401600060405180830381600087803b1580156118fb57600080fd5b505af115801561190f573d6000803e3d6000fd5b5050505050505050565b6040516370a0823160e01b8152306004820152600090739d39a5de30e57443bff2a8307a4256c8797a3497906370a0823190602401602060405180830381865afa15801561196b573d6000803e3d6000fd5b505050506040513d601f19601f8201168201806040525081019061198f91906122fb565b90508060000361199d575050565b73a0b86991c6218b36c1d19d4a2e9eb0ce3606eb47196001600160a01b03831601611b8d576119f5739d39a5de30e57443bff2a8307a4256c8797a3497731dd125c32e4b5086c63cc13b3ca02c4a2a61fa9b83611e4e565b6040516313346fd560e11b8152600160048201526024810182905260006044820152306064820152731dd125c32e4b5086c63cc13b3ca02c4a2a61fa9b90632668dfaa906084016020604051808303816000875af1158015611a5b573d6000803e3d6000fd5b505050506040513d601f19601f82011682018060405250810190611a7f91906122fb565b506040516370a0823160e01b815230600482015260009073dac17f958d2ee523a2206206994597c13d831ec7906370a0823190602401602060405180830381865afa158015611ad2573d6000803e3d6000fd5b505050506040513d601f19601f82011682018060405250810190611af691906122fb565b9050611b2b73dac17f958d2ee523a2206206994597c13d831ec773bebc44782c7db0a1a60cb6fe97d0b483032ff1c783611e4e565b604051630f7c084960e21b81526002600482015260016024820152604481018290526000606482015273bebc44782c7db0a1a60cb6fe97d0b483032ff1c790633df0212490608401600060405180830381600087803b15801561165a57600080fd5b73dac17f958d2ee523a2206206994597c13d831ec6196001600160a01b03831601611c6f57611be5739d39a5de30e57443bff2a8307a4256c8797a3497731dd125c32e4b5086c63cc13b3ca02c4a2a61fa9b83611e4e565b6040516313346fd560e11b8152600160048201526024810182905260006044820152306064820152731dd125c32e4b5086c63cc13b3ca02c4a2a61fa9b90632668dfaa906084016020604051808303816000875af1158015611c4b573d6000803e3d6000fd5b505050506040513d601f19601f820116820180604052508101906101ef91906122fb565b736b175474e89094c44da98b954eedeac495271d0e196001600160a01b03831601611e4a57611cc7739d39a5de30e57443bff2a8307a4256c8797a3497731dd125c32e4b5086c63cc13b3ca02c4a2a61fa9b83611e4e565b6040516313346fd560e11b8152600160048201526024810182905260006044820152306064820152731dd125c32e4b5086c63cc13b3ca02c4a2a61fa9b90632668dfaa906084016020604051808303816000875af1158015611d2d573d6000803e3d6000fd5b505050506040513d601f19601f82011682018060405250810190611d5191906122fb565b506040516370a0823160e01b815230600482015260009073dac17f958d2ee523a2206206994597c13d831ec7906370a0823190602401602060405180830381865afa158015611da4573d6000803e3d6000fd5b505050506040513d601f19601f82011682018060405250810190611dc891906122fb565b9050611dfd73dac17f958d2ee523a2206206994597c13d831ec773bebc44782c7db0a1a60cb6fe97d0b483032ff1c783611e4e565b604051630f7c084960e21b81526002600482015260006024820181905260448201839052606482015273bebc44782c7db0a1a60cb6fe97d0b483032ff1c790633df0212490608401611640565b5050565b611e618363095ea7b360e01b8484611ecc565b6101ef57611e798363095ea7b360e01b846000611ecc565b1580611e955750611e938363095ea7b360e01b8484611ecc565b155b156101ef576040517f19be9a9000000000000000000000000000000000000000000000000000000000815260040160405180910390fd5b60006040518481528360048201528260248201526020600060448360008a5af19150508015611f18573d8015611f0e57600160005114601f3d11169150611f16565b6000863b1191505b505b949350505050565b6001600160a01b03811681146105d157600080fd5b8035611f4081611f20565b919050565b60008060008060808587031215611f5b57600080fd5b8435611f6681611f20565b93506020850135611f7681611f20565b93969395505050506040820135916060013590565b600080600060608486031215611fa057600080fd5b8335611fab81611f20565b9250602084013591506040840135611fc281611f20565b809150509250925092565b634e487b7160e01b600052604160045260246000fd5b604051601f8201601f1916810167ffffffffffffffff8111828210171561200c5761200c611fcd565b604052919050565b600067ffffffffffffffff82111561202e5761202e611fcd565b5060051b60200190565b600082601f83011261204957600080fd5b8135602061205e61205983612014565b611fe3565b82815260059290921b8401810191818101908684111561207d57600080fd5b8286015b848110156120985780358352918301918301612081565b509695505050505050565b60008083601f8401126120b557600080fd5b50813567ffffffffffffffff8111156120cd57600080fd5b6020830191508360208285010111156120e557600080fd5b9250929050565b60008060008060008060a0878903121561210557600080fd5b863567ffffffffffffffff8082111561211d57600080fd5b818901915089601f83011261213157600080fd5b8135602061214161205983612014565b82815260059290921b8401810191818101908d84111561216057600080fd5b948201945b8386101561218757853561217881611f20565b82529482019490820190612165565b9a50508a01359250508082111561219d57600080fd5b6121a98a838b01612038565b965060408901359150808211156121bf57600080fd5b6121cb8a838b01612038565b95506121d960608a01611f35565b945060808901359150808211156121ef57600080fd5b506121fc89828a016120a3565b979a9699509497509295939492505050565b60006020828403121561222057600080fd5b813561222b81611f20565b9392505050565b60006020828403121561224457600080fd5b815161222b81611f20565b634e487b7160e01b600052601160045260246000fd5b808202811582820484141761227c5761227c61224f565b92915050565b60008261229f57634e487b7160e01b600052601260045260246000fd5b500490565b6000806000606084860312156122b957600080fd5b83356122c481611f20565b925060208401356122d481611f20565b929592945050506040919091013590565b634e487b7160e01b600052603260045260246000fd5b60006020828403121561230d57600080fd5b5051919050565b8082018082111561227c5761227c61224f565b600081518084526020808501945080840160005b838110156123575781518752958201959082019060010161233b565b509495945050505050565b6000815180845260005b818110156123885760208185018101518683018201520161236c565b506000602082860101526020601f19601f83011685010191505092915050565b600060e082016001600160a01b03808b168452602060e081860152828b5180855261010087019150828d01945060005b818110156123f65785518516835294830194918301916001016123d8565b5050858103604087015261240a818c612327565b935050505082810360608401526124218188612327565b6001600160a01b0387166080850152905082810360a08401526124448186612362565b91505061245760c083018461ffff169052565b98975050505050505050565b828152604060208201526000611f186040830184612327565b6000606082016001600160a01b038087168452602081871681860152604060608187015283875180865260808801915060808160051b890101955083890160005b828110156124fe57898803607f1901845281518051881689528601518689018690526124eb868a0182612362565b98505092850192908501906001016124bd565b50959b9a505050505050505050505056fea2646970667358221220ea5ae204a57bef8536da22c9de6c9c18bf118f324e697a8278b5c4361782e1d464736f6c63430008110033",
    "linkReferences": {}
  },
  "methodIdentifiers": {
    "aavePool()": "a03e4bc3",
    "executeOperation(address[],uint256[],uint256[],address,bytes)": "920f5c84",
    "liquidateCreditAccount(address,address,uint256,uint256)": "25184b86",
    "owner()": "8da5cb5b",
    "renounceOwnership()": "715018a6",
    "transferOwnership(address)": "f2fde38b",
    "withdrawToken(address,uint256,address)": "3ccdbb28"
  },
  "id": 1
}